:020000040000FA
:100000000C9496000C94BE000C94BE000C94BE00A0
:100010000C94BE000C94BE000C94BE000C94BE0068
:100020000C94BE000C94BE000C94BE000C94BE0058
:100030000C94BE000C94BE000C94BE000C94BE0048
:100040000C94EF040C94BE000C9423040C945504FF
:100050000C94BE000C94BE000C94BE000C94BE0028
:100060000C94BE000C94BE000C94BE000C94BE0018
:100070000C94BE000C94BE000C94BE000C94BE0008
:100080000C94BE000C94BE000C94BE000C94BE00F8
:100090000C94BE000C94BE000C94BE000C94BE00E8
:1000A0000C94BE000C94BE000C94BE000C94BE00D8
:1000B0000C94BE000A0D0E0900030200000405089E
:1000C000000000000000000000000000000000012F
:1000D00002040810204080010204081020010204DC
:1000E00008102040804001020408040404040404B1
:1000F00004040202020202020303030303030202D6
:100100000305050505000000002300260029002C3A
:100110000000000000250028002B002E0000000039
:1001200000240027002A002D0000850411241FBE92
:10013000CFEFD8E0DEBFCDBF11E0A0E0B1E0E0E15D
:10014000FEE002C005900D92A431B107D9F721E07D
:10015000A4E1B1E001C01D92A13CB207E1F710E0BB
:10016000C6E9D0E004C02197FE010E940007C5390E
:10017000D107C9F70E94E0040C9406070C94000014
:1001800062E081E10E944A0662E082E10E944A0642
:1001900060E080E10E944A0660E08EE00E944A062C
:1001A00060E08FE00E944A0661E087E00E944A0614
:1001B00061E086E00E944A0661E085E00E944A060E
:1001C00061E089E00E944A0661E08AE00E944A06F6
:1001D00026E040E052EC61E070E08BE191E00E94AB
:1001E000D10360E087E00E94860660E086E00E941E
:1001F000860660E085E00E94860660E088E00E9456
:10020000860660E089E00E94860660E08AE00C9441
:10021000860680E10E94DF0521E08A3B91050CF40F
:1002200020E0822F08950E94DF0521E0853393406E
:1002300008F420E0822F089561E088E00E9486069D
:1002400060E08AE00E94860662E370E080E090E071
:100250000E946A0561E089E00E94860662E370E020
:1002600080E090E00E946A0561E085E00E948606D9
:1002700060E087E00E94860660E086E00C948606D7
:1002800061E088E00E94860661E08AE00E948606BE
:1002900062E370E080E090E00E946A0561E089E03E
:1002A0000E94860662E370E080E090E00E946A05AA
:1002B00060E085E00E94860661E087E00E94860695
:1002C00060E086E00C94860660E089E00E94860685
:1002D00062E370E080E090E00E946A0560E088E000
:1002E0000E94860660E08AE00E94860662E370E073
:1002F00080E090E00E946A0560E086E00E94860649
:1003000060E087E00E94860660E085E00C94860647
:1003100060E089E00E94860662E370E080E090E0A1
:100320000E946A0560E088E00E94860660E08AE03C
:100330000E94860662E370E080E090E00E946A0519
:1003400060E087E00E94860660E085E00E94860605
:1003500062E370E080E090E00E946A0561E086E080
:100360000E94860668EE73E080E090E00E946A05D5
:1003700060E086E00C948606CF92DF92EF92FF92C7
:1003800081E10E94B406892BD9F564E670E080E033
:1003900090E00E946A0581E10E94B406892B81F5F4
:1003A0000E9464010E9440010E9439056B017C019A
:1003B00081E10E94B406892BD9F30E9439059B0183
:1003C000AC012C193D094E095F0969017A010E94AF
:1003D0008801C701B60128EE33E040E050E00E94FA
:1003E000DE0680911801C82ED12CF12CE12C821B45
:1003F000C216D306E406F50608F480E080931801DF
:1004000082E10E94B406892BC9F50E94090181117D
:1004100035C064E670E080E090E00E946A0582E109
:100420000E94B406892B51F50E940901811126C052
:100430000E9464010E941C010E9439056B017C012D
:1004400082E10E94B406892BD9F30E9439059B01F1
:10045000AC012C193D094E095F0969017A010E941E
:100460008801C701B60128EE33E040E050E00E9469
:10047000DE0680911801280F209318018091190140
:1004800081115FC08EE00E9413018130E9F464EFB6
:1004900071E080E090E00E946A058EE00E94130106
:1004A000813009F048C00E941C0160E47CE980E0D2
:1004B00090E00E946A050E94640188E2809318011E
:1004C00081E08093190105C08FE00E941301813003
:1004D000F1F20E940901813049F5809118018230C2
:1004E00020F480911A01811121C064EF71E080E055
:1004F00090E00E946A050E9409018130B9F4809160
:100500001801823020F480911A0181110FC00E94DD
:10051000400160E47CE980E090E00E946A050E946E
:1005200064011092180181E080931A01FF90EF900E
:10053000DF90CF9008958FE00E941301813049F63B
:10054000B2CF809119018130C1F48EE00E94130175
:100550008111BFCF8FE00E9413018111BACF82E0D9
:10056000809319010E94390560931401709315015D
:100570008093160190931701ACCF8EE00E94130177
:1005800081119ECF8FE00E941301811199CF0E94AB
:100590003905C0901401D0901501E0901601F0903B
:1005A00017016C197D098E099F0960387F448241CB
:1005B000910508F48ECF0E94400160E47CE980E060
:1005C00090E00E946A050E94640110921801109246
:1005D00019017FCFFC01918D228D892F90E0805CE5
:1005E0009F4F821B91098F7399270895FC01918D6C
:1005F000828D981731F0828DE80FF11D858D90E086
:1006000008958FEF9FEF0895FC01918D828D9817CB
:1006100061F0A28DAE0FBF2FB11D5D968C91928DB2
:100620009F5F9F73928F90E008958FEF9FEF0895E3
:10063000FC01538D448D252F30E0842F90E0821BE8
:10064000930B541710F0CF960895019708958BE7F8
:1006500094E0892B49F080E090E0892B29F00E94FA
:100660007B0481110E94000080E090E0892B49F01A
:1006700080E090E0892B29F00E94000081110C9409
:1006800000000895FC01A48DA80FB92FB11DA35A35
:10069000BF4F2C91848D90E001968F739927848FA2
:1006A000A689B7892C93A089B1898C9183708064C5
:1006B0008C93938D848D981306C00288F389E02D66
:1006C00080818F7D80830895CF93DF93EC01888DA7
:1006D0008823B9F0AA89BB89E889F9898C9185FDBD
:1006E00003C0808186FD0DC00FB607FCF7CF8C914B
:1006F00085FFF2CF808185FFEDCFCE010E944203BE
:10070000E9CFDF91CF910895EF92FF920F931F935E
:10071000CF93DF93EC0181E0888F9B8D8C8D9813B4
:100720001AC0E889F989808185FF15C09FB7F894C0
:10073000EE89FF896083E889F9898081837080640C
:1007400080839FBF81E090E0DF91CF911F910F9157
:10075000FF90EF900895F62E0B8D10E00F5F1F4F66
:100760000F731127E02E8C8D8E110CC00FB607FC75
:10077000FACFE889F989808185FFF5CFCE010E9403
:100780004203F1CFEB8DEC0FFD2FF11DE35AFF4F2C
:10079000F0829FB7F8940B8FEA89FB898081806291
:1007A000CFCFCF92DF92EF92FF921F93CF93DF9341
:1007B000EC016A017B01122F60E874E88EE190E0A1
:1007C000A70196010E94DE06215031094109510915
:1007D0005695479537952795E889F98982E0808372
:1007E000211580E1380798F0E889F989108260E4E2
:1007F00072E48FE090E0A70196010E94DE0621508E
:100800003109410951095695479537952795EC854A
:10081000FD853083EE85FF852083188EEC89FD8968
:100820001083EA89FB89808188698083EA89FB8952
:1008300080818F7D8083DF91CF911F91FF90EF901A
:10084000DF90CF9008951F920F920FB60F92112450
:100850002F938F939F93EF93FF93E0912B01F09150
:100860002C018081E0913101F091320182FD1BC0A9
:100870009081809134018F5F8F73209135018217B1
:1008800041F0E0913401F0E0E55EFE4F958F8093FA
:100890003401FF91EF919F918F912F910F900FBE97
:1008A0000F901F9018958081F4CF1F920F920FB672
:1008B0000F9211242F933F934F935F936F937F93E6
:1008C0008F939F93AF93BF93EF93FF938BE191E04F
:1008D0000E944203FF91EF91BF91AF919F918F9141
:1008E0007F916F915F914F913F912F910F900FBE2C
:1008F0000F901F9018958BE191E00E94EA0221E091
:10090000892B09F420E0822F0895EBE1F1E01382B6
:10091000128288EE93E0A0E0B0E084839583A68302
:10092000B78385E091E09183808385EC90E09587A3
:10093000848784EC90E09787868780EC90E0918BA9
:10094000808B81EC90E0938B828B82EC90E0958B96
:10095000848B86EC90E0978B868B118E128E138E93
:10096000148E0895AF92BF92CF92DF92EF92FF92D2
:100970000F931F93CF93DF936C017B018B01040FC7
:10098000151FEB015E01AE18BF08C017D10759F063
:100990006991D601ED91FC910190F081E02DC601A5
:1009A0000995892B79F7C501DF91CF911F910F919F
:1009B000FF90EF90DF90CF90BF90AF900895089593
:1009C0000E94A3050E94DF040E94C000C7E2D3E09A
:1009D0000E94BC012097E1F30E942703F9CF1F92E8
:1009E0000F920FB60F9211242F933F938F939F93E3
:1009F000AF93BF938091BD019091BE01A091BF01C3
:100A0000B091C0013091BC0126E0230F2D3768F171
:100A100029E8230F0396A11DB11D2093BC018093EB
:100A2000BD019093BE01A093BF01B093C00180911E
:100A3000B8019091B901A091BA01B091BB010196A2
:100A4000A11DB11D8093B8019093B901A093BA0183
:100A5000B093BB01BF91AF919F918F913F912F9127
:100A60000F900FBE0F901F9018950296A11DB11DFB
:100A7000D4CF2FB7F8946091BD017091BE018091E1
:100A8000BF019091C0012FBF08953FB7F8948091A6
:100A9000B8019091B901A091BA01B091BB0126B5FE
:100AA000A89B05C02F3F19F00196A11DB11D3FBFA6
:100AB000BA2FA92F982F8827BC01CD01620F711D75
:100AC000811D911D43E0660F771F881F991F4A956E
:100AD000D1F708958F929F92AF92BF92CF92DF92FB
:100AE000EF92FF926B017C010E9445054B015C0176
:100AF000C114D104E104F104E9F00E94DD060E9472
:100B00004505681979098A099B09683E7340810582
:100B1000910570F321E0C21AD108E108F10888EECE
:100B2000880E83E0981EA11CB11CC114D104E104FD
:100B3000F10429F7FF90EF90DF90CF90BF90AF9036
:100B40009F908F900895789484B5836084BD85B517
:100B5000836085BDEEE6F0E0808181608083E1E81E
:100B6000F0E082E08083808181608083E0E8F0E0D3
:100B7000808181608083E1EBF0E08081846080830C
:100B8000E0EBF0E0808181608083E1E9F0E080814A
:100B900083608083E0E9F0E0808181608083E1EA26
:100BA000F0E0808183608083E0EAF0E08081816012
:100BB000808386E880937A001092C100089588307F
:100BC00038F092EF980F9B30D8F08931D8F08351EC
:100BD0002091000190E4299F900111248770822BBD
:100BE00080937C0080917A00806480937A00809169
:100BF0007A0086FDFCCF809178009091790008956D
:100C0000892FE6CF8FEFE4CF82508D3008F03EC0C1
:100C1000E82FF0E0E25FF94F0C9400074306470627
:100C20001B0621064606460625062B062F06350618
:100C3000460639063F06809180008F7780938000BA
:100C40000895809180008F7DF9CF8091B0008F77DB
:100C50008093B00008958091B0008F7DF9CF80918E
:100C600090008F77809390000895809190008F7D01
:100C7000F9CF8091A0008F778093A0000895809194
:100C8000A0008F7DF9CF84B58F7784BD089584B59A
:100C90008F7DFBCFCF93DF9390E0FC01E153FF4FBB
:100CA000249186519F4FFC0184918823C9F090E0E4
:100CB000880F991FFC01E35EFE4FA591B491FC01E2
:100CC000EF5EFE4FC591D49161110DC09FB7F894AE
:100CD0008C91209582238C938881282328839FBF21
:100CE000DF91CF910895623051F49FB7F8943C9111
:100CF000822F809583238C93E8812E2BEFCF8FB7A3
:100D0000F894EC912E2B2C938FBFEACF1F93CF93A7
:100D1000DF93282F30E0F901EC54FF4F8491F90163
:100D2000E153FF4FD491F901E651FF4FC491CC2319
:100D3000A9F0162F81110E940406EC2FF0E0EE0FAF
:100D4000FF1FEF5EFE4FA591B4918FB7F894EC9121
:100D5000111108C0D095DE23DC938FBFDF91CF91B6
:100D60001F910895DE2BF8CFCF93DF93282F30E02B
:100D7000F901EC54FF4F8491F901E153FF4FD491F5
:100D8000F901E651FF4FC491CC23A1F081110E94DB
:100D90000406EC2FF0E0EE0FFF1FEB5FFE4FA59176
:100DA000B491EC91ED2381E090E009F480E0DF91D3
:100DB000CF91089580E090E0FACF0895A1E21A2E35
:100DC000AA1BBB1BFD010DC0AA1FBB1FEE1FFF1FEF
:100DD000A217B307E407F50720F0A21BB30BE40B3F
:100DE000F50B661F771F881F991F1A9469F7609586
:100DF0007095809590959B01AC01BD01CF01089540
:100E0000EE0FFF1F0590F491E02D0994F894FFCFA9
:100E100001000000008403B20418036403EA020422
:040E200003F60200D3
:107E000001C0B7C0112484B790E89093610010922C
:107E10006100882361F0982F9A70923041F081FFC1
:107E200002C097EF94BF282E80E0C6D0E9C085E05D
:107E30008093810082E08093C00088E18093C1003C
:107E400080E18093C40086E08093C2008EE0B4D0CD
:107E5000259A84E028E13EEF91E03093850020935D
:107E6000840096BBB09BFECF1D9AA8954091C000A0
:107E700047FD02C0815089F793D0813479F490D0C6
:107E8000182FA0D0123811F480E004C088E0113817
:107E900009F083E07ED080E17CD0EECF823419F40B
:107EA00084E198D0F8CF853411F485E0FACF853598
:107EB00041F476D0C82F74D0D82FCC0FDD1F82D0DC
:107EC000EACF863519F484E085D0DECF843691F58B
:107ED00067D066D0F82E64D0D82E00E011E05801AB
:107EE0008FEFA81AB80A5CD0F80180838501FA10D8
:107EF000F6CF68D0F5E4DF1201C0FFCF50E040E0DC
:107F000063E0CE0136D08E01E0E0F1E06F0182E067
:107F1000C80ED11C4081518161E0C8012AD00E5F9A
:107F20001F4FF601FC10F2CF50E040E065E0CE01BB
:107F300020D0B1CF843771F433D032D0F82E30D086
:107F400041D08E01F80185918F0123D0FA94F11070
:107F5000F9CFA1CF853739F435D08EE11AD085E934
:107F600018D086E197CF813509F0A9CF88E024D0D9
:107F7000A6CFFC010A0167BFE895112407B600FCF3
:107F8000FDCF667029F0452B19F481E187BFE89594
:107F900008959091C00095FFFCCF8093C60008958E
:107FA0008091C00087FFFCCF8091C00084FD01C09C
:107FB000A8958091C6000895E0E6F0E098E19083EE
:107FC00080830895EDDF803219F088E0F5DFFFCF80
:107FD00084E1DFCFCF93C82FE3DFC150E9F7CF9122
:027FE000F1CFDF
:027FFE00000879
:00000001FF
